:020000040800F2
:10000000D04A002089010008250F00081D0F0008B4
:10001000210F000845020008291000080000000018
:100020000000000000000000000000002D0F00088C
:100030004902000800000000290F0008310F0008E5
:10004000A3010008A3010008A3010008A301000800
:10005000A3010008A3010008A3010008A3010008F0
:10006000A3010008A3010008A3010008A3010008E0
:10007000A3010008A3010008A3010008A3010008D0
:10008000A3010008A3010008A3010008A3010008C0
:10009000A3010008A3010008A30100084D02000805
:1000A000450F0008490F0008A3010008A30100083C
:1000B000A3010008A3010008A3010008A301000890
:1000C000A3010008A3010008A3010008A301000880
:1000D000A301000805100008111000081D100008F9
:1000E000A3010008A3010008A301000800F002F822
:1000F00000F03AF80AA090E8000C82448344AAF188
:100100000107DA4501D100F02FF8AFF2090EBAE885
:100110000F0013F0010F18BFFB1A43F0010318473B
:100120000416000024160000103A24BF78C878C1D5
:10013000FAD8520724BF30C830C144BF04680C60ED
:10014000704700000023002400250026103A28BF35
:1001500078C1FBD8520728BF30C148BF0B60704739
:100160001FB51FBD10B510BD00F031F81146FFF7E7
:10017000F7FF00F05BFF00F04FF803B4FFF7F2FF6A
:1001800003BC00F057F800000948804709480047C1
:10019000FEE7FEE7FEE7FEE7FEE7FEE7FEE7FEE737
:1001A000FEE7FEE704480549054A064B7047000094
:1001B000410F0008ED000008D0010020D04A0020C7
:1001C000D00A0020D00A002070477047704775465B
:1001D00000F02CF8AE4605006946534620F00700B3
:1001E000854618B020B5FFF7DDFFBDE820404FF091
:1001F00000064FF000074FF000084FF0000BAC4630
:10020000ACE8C009ACE8C009ACE8C009ACE8C0097A
:1002100021F007018D46704710B50446AFF300800A
:100220002046BDE81040FFF7A8BF00000048704717
:100230000800002001491820ABBEFEE7260002009E
:1002400070470000FEE700007047000040F21440D5
:10025000C4F201000168C90544BF4FF48071016018
:100260000168890544BF4FF40071016070470000C8
:100270002DE9F04F82B0D1F800E0BEF1000F00F0A0
:10028000098141F20042C4F2010204234FF0010C43
:1002900000254FF0010A4FF00009904208BF0323E8
:1002A000009341E041F20003C4F201039842009B35
:1002B00008BF0223BB40234342F82C304E684FF066
:1002C000010CF203DEF8002054BF22EA080242EAE1
:1002D0000802CEF80020DEF80420B30354BF22EA5F
:1002E000080242EA0802CEF80420F302DEF80820F1
:1002F00054BF22EA080242EA0802B30240F20C4369
:10030000CEF80820C4F201031A6854BF22EA08029A
:1003100042EA08021A60D1F800E004353EFA0AF217
:100320000AF1010A00F0B680AAF1010B0CFA0BF8F1
:100330001EEA080FEFD04A684FF6FF73C1F21003B0
:100340009A4217DC122A00F2648040F2004E0F2419
:10035000C4F2010EDFE802F0400A4E5262626262AD
:10036000626262626262626262555900D1F80C9008
:1003700054E000BF4FF6FF73C1F221039A4215DC2F
:100380000023C1F2110340F2004E9A424FF00F04D5
:10039000C4F2010E20D00023C1F212039A421BD0F6
:1003A0000023C1F221039A4216D037E00023C1F2A4
:1003B000220340F2004E9A424FF00F04C4F2010EA5
:1003C0000AD00023C1F231039A4205D00023C1F2C2
:1003D00032039A4222D100BF8A6842B1012A14BF77
:1003E000C0F81480C0F810804FF0080916E04FF0F4
:1003F000040913E0CA6802F108090FE04FF0000990
:100400000CE0CA6802F1040908E0CA6802F10C09AC
:1004100004E040F2004E0F24C4F2010E2A460346C7
:10042000BBF1080F24BF203A04331F6804FA02F618
:10043000B74309FA02F23A431A60CA79D2067FF545
:100440006AAF41F21803C4F202031A684FEA9B0C28
:1004500042F001021A601A6805F00C0702F001026E
:100460000192019AAEF57E7252F82C3040F60006E9
:10047000BC40C4F20106B04223EA040408D040F6AE
:100480000043C4F2010398427FF40CAF012311E74B
:1004900000230FE702B0BDE8F08F0000002804BF82
:1004A0000120704710B582B090F83D1000295DD052
:1004B000022180F83D10016840F2FF720B68C4F21F
:1004C000000242F6004C9142C4F2010C05DCB1F18D
:1004D000804F0AD040F2004403E0614505D040F669
:1004E0000004C4F20004A14203D1846823F0700325
:1004F0002343914205DCB1F1804F0AD040F2004223
:1005000003E0614505D040F60002C4F200029142CA
:1005100003D1026923F440731343846923F08002FA
:10052000D0F804E0C368224361450A60CB62C1F899
:1005300028E002D14269CCF8302001224A6180F8DB
:10054000462080F83E2080F83F2080F8402080F848
:10055000412080F8422080F8432080F8442080F831
:10056000452080F83D20002002B010BD0168002227
:10057000B1F1804F80F83C2042D042F60042C4F2F4
:100580000102914294D141F21801C4F202010A68B9
:100590004EF60C5C42F400620A600968CEF2000C70
:1005A00001F4006101910199DCF800204FF0000E88
:1005B000C2F30222033A38BF72464FF0FF3101FA0C
:1005C00002F220234EF2001423EA0212CEF20004BB
:1005D00084F818234FF080722260DCF80020C2F308
:1005E0000222033A38BF724691404EF2194223EA82
:1005F0000111CEF2000211704FF00071216057E737
:1006000041F21801C4F202014A6842F001024A6054
:10061000496801F001010091009949E780B590F81F
:100620003C20012A4FF0020200F0C080012380F834
:100630003C3080F83D20D0F800C04FF67772DCF8EF
:10064000083023EA0202CCF808200B683F2B1CDD9F
:100650005F2B20DD602B4FD0B3F5005F6CD0702B8B
:1006600040F09E80D1E901E3C968DCF8082043EA44
:100670000E0322F47F4243EA01211143CCF8081013
:10068000DCF8081041F0770188E01F2B28DC5BB311
:10069000102B29D084E0402B61D0502B40F080807B
:1006A000D1F804E0C968DCF82030DCF8202022F022
:1006B0000102CCF82020DCF8182022F0F00242EAF7
:1006C000011123F00A0242EA0E02CCF81810CCF80D
:1006D0002020DCF8081041F0570121F020015DE0F6
:1006E000202B01D0302B5BD1DCF8081021F07001F9
:1006F000194341F0070151E0D1F804E0C968DCF882
:10070000203023F01003CCF82030DCF81830DCF86F
:10071000202023F4704322F0A00243EA013142EA90
:100720000E12CCF81810CCF82020DCF8081041F09C
:10073000670121F0100131E0D1E901E3C968DCF87B
:10074000082043EA0E0322F47F4243EA01211143C9
:10075000CCF80810DCF8081041F480411EE0D1F814
:1007600004E0C968DCF82030DCF8202022F0010227
:10077000CCF82020DCF8182022F0F00242EA011127
:1007800023F00A0242EA0E02CCF81810CCF820201E
:10079000DCF8081041F0470121F03001CCF80810D6
:1007A0000121002280F83D1080F83C20104680BDD9
:1007B00040F26801C2F2000108680269920744BF72
:1007C000C2685FEA827239D40269520744BFC268C4
:1007D0005FEA427239D40269120744BFC2685FEA15
:1007E000027239D40269D20644BFC2685FEAC262AB
:1007F00039D40169C9071FBFC1685FEAC1716FF0D1
:10080000010101610169090641BFC1685FEA016137
:100810006FF0800101610169490641BFC1685FEA6B
:1008200041616FF0400101610169890641BFC16802
:100830005FEA81616FF02001016170476FF0020291
:100840000261826900220A77BEE76FF0040202614A
:10085000826900220A77BEE76FF008020261C2696E
:1008600000220A77BEE76FF010020261C26900221F
:100870000A77BEE7002804BF0120704710B590F842
:100880003D1040F2FF7E002904BF002180F83C109B
:10089000022180F83D100168C4F2000E0B6842F698
:1008A000004C7145C4F2010C05DCB1F1804F0AD057
:1008B00040F2004203E0614505D040F60002C4F278
:1008C0000002914203D1826823F070031343714503
:1008D00005DCB1F1804F0AD040F2004203E06145EF
:1008E00005D040F60002C4F20002914203D1026931
:1008F00023F44073134323F080028369D0F804E0AB
:10090000C4681A4361450A60CC62C1F828E002D18C
:100910004269CCF8302001224A610B6823F00803B9
:100920000B600B6843F008030B6080F8462080F8EA
:100930003E2080F83F2080F8422080F8432080F855
:100940003D20002010BD0000F0B581B004460068D5
:100950000168C268456901F02F03202B02F02003D3
:1009600006D12BB1204601B0BDE8F04000F0F4BA4A
:100970005FEA017C07D005F0010E12F4907F8EF043
:10098000010529D145B3236B1140CA0616D5012BA9
:1009900014D10021009101680091416800910099F3
:1009A0004169490600F1A580A18DE28DE38D002B00
:1009B00018BF914240F0F88001B0F0BD0A0600F186
:1009C000D1804906F8D5C16821F04001C1602020DE
:1009D00084F83D0001B0F0BDCE0718BF12F4807658
:1009E00003D0266C46F00106266401F004070126B8
:1009F00086EA97072F4303D1276C47F00207276445
:100A000001F0020786EA5706354303D1256C45F00D
:100A10000405256453EA0E0318BF0123BCF1000F3F
:100A200004D51BB1236C43F008032364236C002B13
:100A3000C2D01140890603D5204600F08DFA206807
:100A40004169226C01F0400102F00802891800F0AF
:100A5000A780C16821F49071C160416921F0010152
:100A60004161216B012903D1C16821F01001C160EE
:100A7000202184F83E1000212163416949069BD55D
:100A8000416921F040014161A06B002894D090F8A9
:100A9000211040F64D72C0F600020229426340F078
:100AA00096800268116821F00E0111602F211368F1
:100AB000C4F202018A4240F20401C4F2020123F0AE
:100AC0000103136040F396803023C4F202039A427C
:100AD00000F09C804423C4F202039A4200F0998003
:100AE0005823C4F202039A4240F098804FF48033B6
:100AF0009CE0A16B0A6853689EB2002E3FF45CAF85
:100B0000A78DBE42BFF458AFE3858B69202B6ED012
:100B1000C36823F48073C360436923F00103436116
:100B2000436923F040034361202384F83E300023CF
:100B30002363C36823F01003C36091F821000228E7
:100B400050D11068012320F00E001060106820F0D2
:100B500001001060D1E90F0203FA02F2426081F84D
:100B6000213041E094F83D1021297FF425AFA168A0
:100B7000B1F5805F01D1216961B3216A4A1C22620B
:100B800009784160E18C01390A04E1847FF414AFF3
:100B9000C16821F08001C160C16841F0400113E0EB
:100BA0000020206401B0F0BDC16821F49071C160E3
:100BB000416921F001014161202184F83E100021AA
:100BC0002163C16821F01001C16001B0F0BD0421B2
:100BD00081632FE0216A31F8022B6FF35F224260BC
:100BE0002162CFE704208863002081F82000E08D97
:100BF00001B0F0BD0823C4F202039A420CD01C23BA
:100C0000C4F202039A4209D110230FE04FF480731B
:100C10000CE04FF4805309E0012307E001F168077D
:100C20004FF08073BA4208BF4FF480130B604FF44B
:100C30008071018401B0BDE8F04000F087B9000088
:100C4000002804BF012070472DE9F04385B0044619
:100C500090F83D0041F2180740F60005C4F2020783
:100C60000028C4F2010540F0F180002684F83C60C1
:100C70000496CDE90266206844F20041C4F2000106
:100C8000884201964ED044F60001C4F20001884229
:100C900000F0868043F60001C4F20101884240F072
:100CA000D58038680DF1040840F480403860386819
:100CB000414600F4804000900098386840F00400FD
:100CC0003860386800F00400009000984FF49050AD
:100CD000019002200290032004902846FFF7C8FAF2
:100CE0004FF440600190002628464146CDE9026657
:100CF000FFF7BEFA4EF60C50CEF2000000684FF03F
:100D0000FF31C0F30220033838BF304601FA00F04B
:100D1000202121EA00104EF22541CEF20001087098
:100D200005208BE078680DF1040840F4003078600D
:100D30007868414600F4003000900098386840F030
:100D400004003860386800F0040000900098042027
:100D5000019002200290032004902846FFF788FAB1
:100D60000820CDE90106284641460396FFF780FAA0
:100D70004EF60C50CEF2000000684FF0FF31C0F389
:100D80000220033838BF304601FA00F0302121EA52
:100D900000104EF22541CEF20001487006204DE0D1
:100DA000786805F5006640F48020786078680DF179
:100DB000040800F48020009000983868414640F014
:100DC00010003860386800F01000009000984FF470
:100DD0008060019002200290032004903046FFF7CB
:100DE00047FA4FF4006001904FF000093046414649
:100DF000CDE90299FFF73CFA0420C4F20100016832
:100E000041F0E06141F0100121F0200101604EF657
:100E10000C50CEF2000000684FF0FF31C0F302200A
:100E2000033838BF484601FA00F0202121EA0010BB
:100E30004EF22541CEF2000188700720012101FA0F
:100E400000F04EF20411CEF200010860242084F874
:100E50003D0094E80F008900C66826F40056C6607D
:100E6000066926F4405633430361D4E904361A4335
:100E7000C368324341F20C66B3431A43C26042690D
:100E8000A36922F440721A43426140F20002C2F2A6
:100E90000002126857F8143C05F540571E0AB84284
:100EA00008BFDE0A06F007031AA7FB5CDA40192325
:100EB0005A43B2FBF1F148F21F52C5F2EB12A1FB0B
:100EC00002377B096FF0630703FB0711322707EB3B
:100ED0000111A1FB0212F02101EA521101EB0311F1
:100EE000C2F3431211448160016921F49041016110
:100EF000416921F02A014161C16841F40051C1609A
:100F000000202021206484F83D1084F83E1005B0B4
:100F1000BDE8F0830000000001020304FEE70000CA
:100F2000FEE70000FEE70000704700007047000089
:100F300040F2C410C2F20000016801310160704744
:100F400070470000FFF734BCFFF732BC406A002155
:100F5000C185C1847047000081B090F83E102229FD
:100F600020D18368B3F5805F08D1016900293FD0A3
:100F700000F128010A6803685B680AE0014651F83D
:100F8000282F13B90369002BF5D003685B6803F0C1
:100F90007F0313700A6801320A60C18D01390A04A7
:100FA000C18501D001B070470168CA6822F02002F3
:100FB000CA60CA6822F48072CA604A6922F00102DB
:100FC0004A61202280F83E20026B012AEAD10022E9
:100FD0000263C86820F01000C8600868C006E1D548
:100FE00000920868009048680090009801B070472F
:100FF0000168826A49686FF35F2122F8021B8262EE
:10100000CBE7000040F2F800C2F20000FFF79CBC02
:1010100040F23C10C2F20000FFF796BC40F2801094
:10102000C2F20000FFF790BCFEE7000084B042F27D
:101030000003C4F2020318684EF60C5640F010008C
:10104000CEF200061860306840F200374FF6FF0518
:10105000C0F2FA572840384340F2000C3060C2F228
:10106000000CDCF8000044F6D352C1F26202A0FB8F
:1010700002044FF0FF3000EB94140020B0EB146F2B
:1010800011D14EF21001CEF200014C60F024F47543
:10109000072488600C603168F07540F2C810C2F215
:1010A00000000121017041F20400C4F20200416914
:1010B00007F5007741F001014161416901F001014B
:1010C00000910099816941F080518161816901F04D
:1010D00080510091009931682940394331600421E1
:1010E000C4F201010F68022565F31A670F600168F9
:1010F00001F00C01042936D0016801F00C01082927
:1011000002D10168C9032ED450F8041C40F2C41760
:1011100041F4803140F8041CC2F200073D6850F8E9
:10112000041C890321D43968491B642900F2A58075
:1011300050F8041C890318D43968491B642900F24B
:101140009C8050F8041C89030FD43968491B64291A
:1011500000F2938050F8041C890306D43968491BB7
:101160006429DCD989E050F8041C016801F00C0105
:10117000082928D1016801F47411B1F5E81F40F085
:101180007C80196811F0060F09D11968022767F3EE
:1011900002011960196801F0070102290FD10168E5
:1011A00041F4E0610160016841F46051016001684F
:1011B00021F0F001016050F8041C890161D4EFF3C3
:1011C000108072B6FEE76025C4F24225002140F28D
:1011D000C4172960C2F200073C6850F8041C89015A
:1011E0001CD53968091B022947D850F8041C89010D
:1011F00014D53968091B02293FD850F8041C89010D
:101200000CD53968091B022937D850F8041C89010C
:1012100004D53968091B0229DFD92EE0016821F4C1
:1012200000310160016821F4741101F5E8110160D9
:10123000012129603D6850F8041C8901A1D4396856
:10124000491B022919D850F8041C890199D439681E
:10125000491B022911D850F8041C89013FF591AFB0
:101260003968491B022908D850F8041C89013FF548
:1012700088AF3968491B0229DDD9EFF3108072B6B7
:10128000FEE70168022767F3010140F2C41701601D
:10129000C2F200073D6841F28834016801F00C0198
:1012A000082922D03968491BA1423FF688AF01685E
:1012B00001F00C01082918D03968491BA1423FF6FA
:1012C0007EAF016801F00C0108290ED03968491B76
:1012D000A1423FF674AF016801F00C01082904D067
:1012E0003968491BA142D8D969E7196801F007019B
:1012F00003290AD31968022767F3020119601968E4
:1013000001F0070102297FF45AAF0168042363F357
:101310000A210160016841F2002321F4605101605B
:101320000568C0F27A0305F00C01082916D1C5F34F
:1013300083410FF2CC377F5CE90306D440F60011FD
:10134000C0F23D0107FB01F308E001680FF2C03570
:10135000C1F34041695C7B43B3FBF1F301680FF2D9
:10136000B437C1F30311795C4FF0FF3923FA01F16F
:10137000A1FB02234EF2100809EB93120027CEF2D4
:101380000008B7EB126FCCF8001014D140F2C8116E
:10139000C2F200010B78C8F80420F022F27507228F
:1013A000012BC8F80870C8F8002004D13268002268
:1013B000F27501220A70416941F2000B41F01001FF
:1013C00041614169C4F2010B01F0100100910099E3
:1013D00041696D4641F02001416141694FF0010AC8
:1013E00001F02001009100994169022441F00401BB
:1013F0004161416901F0040100910099416941F0A6
:101400000801416140694FF0F87100F00800009058
:1014100000980020CCF2F000CBF810004FF610003E
:10142000CFF6FF704BF800104FF610400021CFF6BA
:10143000FF70CFF61F414BF800104CF2F000009007
:1014400058462946CDE901A70394FEF711FF4FF452
:10145000F870CDE9000AABF500602946CDE90274C9
:10146000FEF706FF4FF61F40CDE9000AABF580609E
:101470002946CDE90274FEF7FBFE4FF44070009060
:101480000020C1F21100CDE9010758462946FEF7B8
:10149000EFFE30680C23C0F3022080F0070104291E
:1014A00028BF0421033809FA01F138BF38462AEA77
:1014B000010101FA00F04EF217410001CEF20001E5
:1014C00008704FF40000C8F8F00040F2F8000BF587
:1014D0002051C2F200004FF4E13280E88600C0E9FA
:1014E0000377C0E90537C761FFF7AAFB18B1EFF32F
:1014F000108072B6FEE740F2680000210BF5E05262
:10150000C2F2000041F61F434CF25037CDE9021100
:10151000CDE90011C0E90023C0E90217C0E90411B8
:101520008161FEF7BBFF20B1EFF3108072B600BF00
:10153000FEE74FF48050009040F26800C2F20000D5
:101540006946FFF76BF820B1EFF3108072B600BF69
:10155000FEE740F26804C2F200042046FFF78AF971
:1015600018B1EFF3108072B6FEE794F83C00012842
:1015700003D1EFF3108072B6FEE7012084F83C003F
:10158000022084F83D00206840F2FF7842688168BC
:10159000C4F2000822F070024045426005DCB0F160
:1015A000804F0ED040F2004207E042F60042C4F203
:1015B0000102904205D040F60002C4F200029042BF
:1015C00002D121F080018160012044F2004784F8BB
:1015D0003D00002640F23C10C4F2000784F83C6055
:1015E000C2F200004FF4E1350C24C0E90075C0E9F7
:1015F0000266C0E90464C0E90666FFF721FB20B17A
:10160000EFF3108072B600BFFEE740F2801007F5DE
:101610008061C2F2000080E86200C0E90366C0E9B0
:101620000546C661FFF70CFB18B1EFF3108072B6E8
:10163000FEE740F2B0000021C2F200004FF080420D
:1016400047236327CDE90211CDE90011C0E900234A
:10165000C0E9021701618161FEF720FF18B1EFF3C5
:10166000108072B6FEE74FF48050009040F2B00058
:10167000C2F200006946FEF7D1FF18B1EFF3108007
:1016800072B6FEE740F2B004C2F200042046FFF753
:10169000F1F818B1EFF3108072B6FEE794F83C0051
:1016A000012803D1EFF3108072B6FEE7012084F821
:1016B0003C00022084F83D0020684268816822F0E6
:1016C00070024045426005DCB0F1804F0ED040F220
:1016D000004207E042F60042C4F20102904205D007
:1016E00040F60002C4F20002904202D121F08001D3
:1016F0008160012084F83D00002084F83C00FEE772
:1017000002030405060708090A0B0C0D0E0F101042
:1017100001020000000000000000000001020304BC
:10172000060708094817000800000020080000000C
:10173000280100085017000808000020C84A0000CF
:1017400044010008000000000024F4000000000034
:04000005080000ED02
:00000001FF
